:10000000FCEF0310010100001501000019010000C0
:100010002D0100003101000035010000000000004A
:1000200000000000000000000000000000000000D0
:1000300000000000000000000000000000000000C0
:1000400000000000000000000000000000000000B0
:1000500000000000000000000000000000000000A0
:100060000000000000000000000000000000000090
:100070000000000000000000000000000000000080
:100080000000000000000000000000000000000070
:100090000000000000000000000000000000000060
:1000A0000000000000000000000000000000000050
:1000B0000000000000000000000000000000000040
:1000C0000000000000000000000000000000000030
:1000D0000000000000000000000000000000000020
:1000E0000000000000000000000000000000000010
:1000F0000000000000000000000000000000000000
:10010000DFF83400016841F470010160DFF82CD0A1
:1001100005F092BA0DF0DCB81EF0040F0CBFEFF33F
:100120000880EFF309800DF0EDB800000DF0C2B9C2
:100130000DF0D0B90DF0DEB988ED00E0FCEF031052
:1001400000000000000000000000000000000000AF
:10015000000000000000000000000000000000009F
:10016000000000000000000000000000000000008F
:10017000000000000000000000000000000000007F
:10018000000000000000000000000000000000006F
:10019000000000000000000000000000000000005F
:1001A000000000000000000000000000000000004F
:1001B000000000000000000000000000000000003F
:1001C000000000000000000000000000000000002F
:1001D000000000000000000000000000000000001F
:1001E000000000000000000000000000000000000F
:1001F00000000000000000000000000000000000FF
:100200002DE9F04F8146087889B00E46002800F0AD
:1002100046811746DFF8BC82DFF8BCA24D460AE0F3
:10022000B9F1000F00F0DB802870013570780136DD
:10023000002800F081802528F2D17478732C06F113
:10024000010600F09F8039680F297FDDA1F11003BE
:10025000EF2B40F2AD80A1F58073B3F5706F80F0A5
:10026000AD80A4F13002092A4FF0080373D80023AF
:1002700003EB830304EB430216F8014FA4F13000B3
:100280000928A2F13003F3D9313A782C4FEA8203DE
:1002900063D10DF10C0E0437F3464FF0200C00290A
:1002A00000F0A8800A460020120900F10100FBD1ED
:1002B000421E92009A42B8BF1A46002A13DB5FFA28
:1002C0008CFC13465C4621FA03F000F00F00043B5F
:1002D0001AF8000040EA0C0004F8010BF3D50BEB10
:1002E000920B0BF1010BF345A0D99DF80C400DF1D9
:1002F0000D0301965E469B463B464F46994657B1D5
:100300000A2C2C7005F1010509D05E450BD91BF8AC
:10031000014B002FF4D12046C0470A2CF5D10D2007
:10032000C0475E45F3D8019E70784B460136B9460A
:100330001F4600287FF47FAFC9EB0500B9F1000F1D
:1003400001D000232B7009B0BDE8F08FA4F1300379
:10035000092B8CD90023782C9BD0582C41D0702CA1
:100360004BD0502C58D0642C5AD0632C08BFCCB240
:100370000DF10D0306BF8DF80C4004378DF80C40CD
:100380009B46B6E73C682078043700283FF44EAF20
:100390004B46B1461E464EB12870013514F8010F88
:1003A0000028F8D133464E4699463FE7C047F5E767
:1003B0000423A4F13002092ACDD858E7A1F58053CF
:1003C000B3F5704F69D3414AA1F58033934268D9A0
:1003D000A1F58013B3F5700F65D21423E9E7C04788
:1003E00024E70DF10C0E0437F3464FF0000C002902
:1003F0007FF458AF6FF003025CE704374FF0200C36
:1004000030204CF058028DF80C008DF80D200DF1C5
:100410000E0B0DF10C0E42E704374FF0000CEFE726
:10042000002907F1040746DB0DF10C0E70464FF072
:10043000000CC0EB0C0C8346254A82FB0124CA1732
:10044000C2EBA40202EB8204A1EB440130310BF8B1
:10045000011B11460BEB0C020029EDD1002B0EDB2A
:100460006FEA9303114613443022002901F1FF3152
:10047000DCBF8BF800200BF1010B9942F5D10BF199
:10048000FF339842BFF42FAF1A78017803F80119AF
:1004900000F8012B9842F7D325E70C2389E74D4656
:1004A0004CE7102385E701F17F43B3F1706F34BF50
:1004B00018231C237DE72D2249428DF80C204FF094
:1004C000010C0DF10D000DF10C0EB2E7FFFF0E0057
:1004D00067666666156B0000D89105000FB408B515
:1004E000084B1B68012B08D003AA02990020FFF7D4
:1004F00087FEBDE8084004B07047BDE80840002012
:1005000004B07047000300100EB4094B1B68012BA8
:1005100000B507D002AA0199FFF772FE5DF804EB5F
:1005200003B070475DF804EB002003B0704700BFD4
:100530000003001010B30CB42DE9F04F87B011ACDC
:100540000094E1B94FF0FF31109B1A78002A00F0B7
:100550003581DFF894C2A64605460DF104084FF038
:100560003009252A17D06C1CA1422A7009D8201AFC
:100570000023237007B0BDE8F04F02B0704701447C
:10058000E2E72546109B5A7801331093002AE8D100
:10059000281A2C46ECE75F7801331093732FDEF8AE
:1005A00000606CD00F2E2FDCA7F13002092A54D93D
:1005B0000022782F79D0582F00F0A880702F00F0FB
:1005C000AE80502F00F0B980642F00F0BC80632F04
:1005D00003BFF7B28DF804700EF1040E8DF80470AD
:1005E0000DF1050A2F700135A94240F2EA800DF1A4
:1005F00005039A45C6D913F8012B05F8012B8D4246
:10060000F7D1081A0C46B3E7A6F11002EF2A1FD95A
:10061000A6F58072B2F5706F7FD3A6F58052B2F561
:10062000704FC0F0C9806E4CA6F58032A24240F2F5
:10063000CA80A6F5801204F56104A24240F2CD8082
:1006400006F17F42B2F1706F34BF18221C2200E025
:100650000422A7F13004092CABD8002202EB82025D
:1006600007EB420413F8017FA7F1300ABAF1090F32
:10067000A4F13002F2D9313CA200109399E732780C
:100680000EF1040E002A3FF47EAF6C1CA1422A70CA
:100690007FF66DAF254616F8012F002A3FF473AFA1
:1006A00005F8012B8D42F6D172E70EF1040E3346A8
:1006B0004FF0200BC246002E7BD0002713F00F0412
:1006C00018BF01241B092744F8D17C1EA4009442C2
:1006D000B8BF1446002C13DB5FFA8BFB234657464A
:1006E00046FA03F202F00F02043B1CF8022042EA31
:1006F0000B0207F8012BF3D50AEB940A0AF1010A61
:10070000C2457FF63FAF9DF804706BE70EF1040E13
:1007100033464FF0000BC246CDE7082299E70EF1B1
:10072000040E33464FF0200B4BF058048DF8049024
:100730008DF805400DF1060ABDE70EF1040E3346B3
:100740004FF0000BF0E7002E0EF1040E3DDB00240D
:100750004746E41BBA46234B83FB063BF317C3EB28
:10076000AB0303EB830BA6EB4B0630360AF8016BA9
:100770001E460AEB0403002EEDD1002A0CDB6FEAC3
:1007800092021A44002B03F1FF33DCBF8AF8009079
:100790000AF1010A9342F5D10AF1FF339F42AFD229
:1007A0001A783C7803F8014907F8012B9F42F7D3E8
:1007B000A6E76FF003048AE70C224AE704461046D6
:1007C000D6E629461DE7102243E72D2376428DF811
:1007D000043001240DF10507BBE7142239E700BFFF
:1007E000FFFF0E0067666666D89105000FB40B4BDD
:1007F00000B51B68012B83B00AD00499019102AAAD
:100800000020FFF7FDFC03B05DF804EB04B0704777
:10081000002003B05DF804EB04B070470003001043
:100820000EB40B4B00B51B68012B82B009D00399A5
:10083000019102AAFFF7E4FC02B05DF804EB03B0FB
:100840007047002002B05DF804EB03B0704700BFB2
:10085000000300100B0E082B12D0102B00D0704795
:100860000A1F031F00F57F7153F8040F42F8040FAD
:100870008B42F9D11D4A136843F0805313607047CF
:100880002DE9F041DFF87080194FD8F80030541E80
:1008900021F07F4634440F4024F47F649F42054694
:1008A00024F00F0410D2A34217D9DFF8508006F5C8
:1008B00080673446A21B082120462A440C44C047C6
:1008C000BC42F7D1BDE8F0810A4B39460220984777
:1008D00007F58053C8F80030E5E721460220054BB4
:1008E00004F580549847C8F80040DEE71002004045
:1008F00000F0FF00557700001C0300106176000037
:100900002DE9F04101460446174E1848B047022C25
:10091000174B1DD01968C1F3022101294FF4164568
:1009200088BF00211348144B00272A460760204641
:10093000984728460EF006F82046104B9847104B73
:100940001B6898470F4B1B685B0008D4BDE8F0811B
:1009500019680D4D81F48041C1F38031E2E73346DF
:100960000A48BDE8F0411847DD0400008492050004
:10097000380000401C03001035EB000099EB00002C
:10098000002000101803001060E316009C92050080
:10099000AAB130B40D780478AC420DD10244431CA6
:1009A00005E013F8014B11F8015FAC4204D193420A
:1009B000F7D1002030BC7047601B30BC7047104638
:1009C000704700BF032AF0B40AD83AB10A44431E64
:1009D00011F8014B03F8014F9142F9D1F0BC704777
:1009E00040EA01039B07F1D10F2A98BF034626D99D
:1009F00000F1100401F11003154653F8106C44F88F
:100A0000106C53F80C6C44F80C6C53F8086C44F8F8
:100A1000086C103D53F8046C44F8046C0F2D03F17E
:100A2000100304F11004E8D8A2F1100323F00F031F
:100A300002F00F021033032A1944034411D91E1F78
:100A40000D461446043C55F8047B46F8047F032CFD
:100A5000F8D8141F24F0030404342344214402F082
:100A60000302002ABAD0013B0A4411F8014B03F8F3
:100A7000014F9142F9D1F0BC704700BF0B2A08D852
:100A80002AB3C9B20244034603F8011B9342FBD1C7
:100A9000704770B40D4629B10D0445EA01650D4358
:100AA00045EA012510F0030312D1034622F00304A6
:100AB0001C4443F8045BA342FBD112F0030305D0AE
:100AC000C9B2234404F8011B9C42FBD170BC70479F
:100AD000C3F10403D21ACEB20344044604F8016BF6
:100AE0009C42FBD1E2E700BF2DE9F04FDFF86881BF
:100AF000D8F8003085B09B0202905FFA81FA00F1CD
:100B000092804FFA8AF3002B019356DD0026DFF81E
:100B100054910F463546D8F8000010F400106FD1FC
:100B2000019A05F11003934265DB4FFA87FABAF197
:100B3000000FCAF1100B0CDD029B2B440024039321
:100B400000283DD1013463B25345F9DBBBF1000FFE
:100B500007DD002400283CD10134E4B263B25B45D8
:100B6000F8DB002855D1BAF1000F1EDD029B0024EE
:100B70001D4405E0002836D1013462B2924513DDF0
:100B800015F8011BA1F120035E2B0346F2D90028C2
:100B9000F2D02B48C8470134D8F8000062B200F404
:100BA000001092450346EBDCD3B91036F6B2019B38
:100BB00075B2103FAB42FFB2ADDC05B0BDE8F08FBF
:100BC000039B2048195DC847D8F8000000F40010C6
:100BD000B8E71D48C847D8F8000000F40010BBE78C
:100BE0001A48C847E1E71A48C847D8F8000000F497
:100BF00000100346C0E74FF0000B4FF0100A9BE7D0
:100C0000029B14485919C847134B186800F4001088
:100C100086E71248C847BAF1000F0ADDD8F800008D
:100C200000F40010A2E70E480E4B0191984701997D
:100C300067E7D8F8003003F40013002BB5D0CFE7F6
:100C4000749305005C930500649305007893050098
:100C50007093050054930500180300106893050075
:100C600014930500DD040000F8B5124E336813F448
:100C7000001312D1104C114F04F17005E1681034CB
:100C800001B123B9AC42F9D173B90120F8BD0C48C8
:100C9000B847336803F40013F4E7084B0948984752
:100CA000336803F40013E5E7044B07489847012035
:100CB000F8BD00BF18030010A06C0400DD040000A4
:100CC000B49305007C930500B8930500F8B5234B59
:100CD0001C6808B308680D46F0B110220021204FAF
:100CE000B8470646686810B10A220021B84716F0D6
:100CF000006504F4005415D0A4B10020194CA0479D
:100D0000194B1B689A021DD526F00306314632683E
:100D1000164B1748984715E0134B186810F400104D
:100D200016D1F8BD104B1B689B0208D526F00306B0
:100D3000314632680E480D4B984705B10CB9012079
:100D4000F8BD084C0120A0470A4B98470120F8BD88
:100D5000064B094898470020F8BD00BF3800004006
:100D60006D1C0000799A000018030010DD040000DB
:100D70000C94050031580000F093050070B5102266
:100D80000E4C08680D460021A047102220F00306F3
:100D900000216868A0470A4B1B689B02044606D4E2
:100DA0003046084B984700B93460002070BD0246B9
:100DB0003146054B05489847F2E700BF6D1C00001F
:100DC00018030010D9420000DD0400000C94050057
:100DD0002DE9F0470D4682B0A14928680CF09CFD32
:100DE0000146002800F092809E4928680CF094FD8E
:100DF00040BB9D4F3B689C0200F18981002110227D
:100E0000A8689A4B98479A49044668680CF084FD94
:100E1000002840F004813B68980200F1E481002141
:100E20000846944B98473B68990200F1D881042109
:100E3000914A924B00209847914B98473B68990202
:100E400000F171818F4928680CF066FD002833D1CC
:100E50008D4B854F1A683B6802F400599A0200F1E5
:100E60005A81B9F1000F40F03F81102249467F4C72
:100E70006868A0470A2206464946A868A0478046F7
:100E8000D0B1DFF83CA2002403E0444506F104069B
:100E90000ED23B689B0204F10104F6D506F1006313
:100EA00031461A687948D047444506F10406F0D324
:100EB000B9F1000F40F0CA80754928680CF02CFD8C
:100EC0000446002800F09280724928680CF024FD46
:100ED000002859D0704928680CF01EFD18B1002078
:100EE00002B0BDE8F0876D4968680CF015FD002878
:100EF00040F024815C4B1B68990200F18C8100203A
:100F0000674B9847002002B0BDE8F087564F574B1B
:100F100068680A2298473B689B02044600F14281B8
:100F2000002C00F099805FFA84F800224FF4807161
:100F300010205C4E5C4CB04764205C4B98475C4B87
:100F40000020984701224FF480711020B047012201
:100F500000210A20574B98472046574B98470121BC
:100F60000322564B84F80580002084F85310A260B9
:100F700098473B68002840F0DA809F027FF534AF45
:100F80004F4B504898472FE701461022A868374B2F
:100F900098474D498DF8030068680CF0BDFC0028A7
:100FA00000F0E380494968680CF0B6FC002800F0C6
:100FB000D380474968680CF0AFFC00288AD13A4CCE
:100FC00094F84D00002840F0E78001AA94F84A0008
:100FD000404B012198479DF803108DF8051001AA98
:100FE00094F84C003C4B0221984773E701461022CD
:100FF0001E4E68680194B047214607461022A86833
:10100000B047194B01901B689C0200F1FE803846E6
:1010100001AA0421194B9847194B984754E72F49C7
:1010200068680CF079FC002840F0C3803B689A02A5
:1010300000F1FC800F4B2146012098473B689B0242
:101040007FF5F5AE1E4B26489847F0E6254C01206B
:10105000A0470B4B98472FE74FF0010865E700BF0B
:101060001C94050070940500180300106D1C00000E
:101070008C94050055770000C07204006176000072
:10108000315800003C95050038000040509505009F
:101090005C95050084950500B0950500B8950500A0
:1010A00011580000659B0000EC0D00101134000089
:1010B000157D0000FD420000117C0000A17C0000B5
:1010C000DD040000449405008C950500A095050002
:1010D000A89505006574000035770000C0940500F0
:1010E000DC940500799A00000020594CDFF8CC818F
:1010F000A047102200216868C0470A220646002146
:10110000A868C047804600287FF4BBAE9FE7514BDC
:101110005148984772E651484E4B9847B9F1000F35
:101120003FF4A3AEE0E74B4B4D4898478AE69E025A
:101130007FF55AAE474B4B48984755E64A49686891
:101140000CF0EAFB002852D1484B1B689A0272D47B
:101150000120474B9847C2E6464A474B92F84C005D
:1011600001210DF10302984723E7424C434E94F8C6
:101170004A0001AA0121B047A369002B4FD13B4B84
:101180001B6898027FF50EAF9DF805209DF80410AE
:10119000304B3B48984705E70DF103020121364BE0
:1011A000984797E637482B4B9847002C3FF454AFAD
:1011B000B9E6354968680CF0AFFB00287FF437AE1C
:1011C0003B689E023BD40220304B214698473B6847
:1011D00098027FF52CAE1F4B2D48984727E61D4BF4
:1011E0002C48984723E61B4B2B48984717E668681E
:1011F0002A490CF091FB00287FF471AE1B4B1B6851
:101200009B0221D4264B984769E602463946114B8A
:1012100024489847FBE60F4B234898476FE694F81D
:101220004B000DF105020121B047A8E72146094B0B
:101230001E489847FEE6074B1D48984788E7214619
:10124000044B1C489847BEE7024B1B489847D9E718
:10125000799A0000DD0400007894050044950500AB
:10126000289505005C940500D09505001803001032
:1012700011580000EC0D0010357700006574000077
:101280009095050024940500F4940500557700001E
:1012900010950500A894050094940500E8950500B4
:1012A0003158000064950500C0950500C8940500FC
:1012B000D8950500FC940500F09505006D1C000014
:1012C0002DE9F04FA44BA54C08681D688946ADF583
:1012D000157D0A220021A04710220021D9F8040020
:1012E000A047102200218046D9F80800A04710220C
:1012F00000218346D9F80C00A04710220F9000214E
:10130000D9F81000A047102210900021D9F814003D
:10131000A047102211900021D9F81800A047002101
:1013200012901022D9F81C00A047D9F800008C496F
:101330000CF0F2FAB0B914AC8A4BBDF83C201B6833
:101340002280BDF840206280BDF84420A2809B022C
:10135000BDF84820E28000F1B68122465946404659
:10136000814B98478149D9F800000CF0D5FA002844
:1013700052D17C4E33689F0200F1938114AC7C4BB8
:10138000204698473368002800F07B8103F400135F
:1013900027464FF0000A13955BB90AF1100ABAF517
:1013A000007F07F1100736D0336803F40013002BD9
:1013B000F3D0F878B9787B7814F80A20019000917E
:1013C000F97BB87B97F80DE00D91397B0C90F87A9A
:1013D000CDF82CE097F80AE00A91797A0990387AEA
:1013E000CDF820E097F807E00791B9790690787971
:1013F000CDF814E097F804E0CDF808E004910390EC
:1014000051465C485C4D0AF1100AA847BAF5007FC6
:1014100007F11007C8D1139D5849D9F800000CF006
:101420007BFA002855D14F4E33689C0200F13D8174
:10143000DFF858A1002714ACE219B9B207232846F7
:101440000137D047B7F5807FF6D127464FF0000A25
:10145000139506E00AF1100ABAF5807F07F110072C
:1014600036D033689802F5D5B9787B7814F80A201D
:10147000009197F80FE0B97B787BCDF834E097F8CE
:101480000CE00C91F97A0B90B87ACDF828E097F837
:1014900009E00991397A0890F879CDF81CE097F8BD
:1014A00006E00691797905903879CDF810E097F843
:1014B00003E0CDF804E003910290514630482E4DF0
:1014C0000AF1100AA847BAF5807F07F11007C8D1C2
:1014D000139D2C49D9F800000CF01EFA00285BD1AE
:1014E00014AC204EBDF84030BDF844106380336822
:1014F000A180BDF84810BDF83C20E180990222800F
:1015000000F1D780BBF1000F46D0DFF884A0CDF802
:101510003C90002713460DE007231FFA88F14A4646
:101520002846D0475F4508F101084FEA570331D0FC
:1015300034F81330306807F00101C9000B41820212
:1015400007F101075FFA83F9E6D54A4641460A4B9F
:101550000D489847E0E700BFE80000406D1C000020
:101560000096050018030010F5710000189605009C
:101570009170000050960500DD040000B096050053
:10158000C89605002897050040970500656D000086
:101590000D6E0000DDF83C90D9F800004F490CF0CA
:1015A000BBF9002869D14E4E336813F4001340F0A4
:1015B0008E804C4A4C4C13A952F8040B41F8040F8E
:1015C000A242F9D114ACDFF82C812546002753B98B
:1015D0001037B7F5807F05F1100533D0336803F479
:1015E0000013002BF4D0E878A9786B78E25D0190C5
:1015F0000091E97BA87B95F80DE00D91297B0C907B
:10160000E87ACDF82CE095F80AE00A91697A099019
:10161000287ACDF820E095F807E00791A97906909F
:101620006879CDF814E095F804E0CDF808E004916D
:10163000039039462D481037C047B7F5807F05F134
:101640001005CBD1274A2A4B126822601A686260C3
:101650005A68A2609A68E260DA6822611A69626177
:101660005A69A2611833234F1B68E3610025336870
:101670009B0210D40135082DF9D10DF5157DBDE87B
:10168000F08F13F40013164F3FF482AE194B1A4833
:1016900098473B687AE654F8252018482946B84709
:1016A000E8E7144B1648984768E6124B15489847E8
:1016B000BEE615480F4B0F9298470F9ABBF1000FEB
:1016C0007FF423AF68E70B4B1048984745E6094B7A
:1016D0000F489847336803F400136AE750970500F2
:1016E0001803001020000040400000407C970500D7
:1016F00024000040DD04000030960500D897050066
:1017000020960500B896050030970500089605005C
:101710005C97050008B508680F490CF0FDF8B8B1F2
:101720000E4C20210020A0470D4B1B689B020BD4C0
:10173000BFF34F8F0B490C4BCA6802F4E0621343AE
:10174000CB60BFF34F8FFEE7084B09489847EFE7A0
:101750000821024CA047E4E7EC9705008D22000029
:101760001803001000ED00E00400FA05DD0400009D
:10177000F897050070B5044628B90F4B186810F4A7
:10178000001014D170BD0D461022002128680B4CAA
:10179000A0470646686840B100210A22A047C1B2AE
:1017A0003046FFF7A1F9012070BD1021F8E7044B86
:1017B00004489847204670BD180300106D1C0000B7
:1017C000DD040000F09305002DE9F04387B0002808
:1017D0003BD008680C46002837D010220021234D4A
:1017E000A84780466068002837D00A220021A84711
:1017F00028F00108064620B31D4FDFF880904546CB
:10180000002404E00434B44205F1100519D23B6809
:101810009B02F7D5E9896B8838F824200591A989BE
:1018200004916989039129890291E9880191A98824
:101830000091104829460434C847B44205F1100508
:10184000E5D3012007B0BDE8F083094B186810F418
:10185000001006D107B0BDE8F08328F0010801268A
:10186000CAE70548054B98470020F3E76D1C0000C8
:10187000180300100C980500F0930500DD0400002B
:101880002DE9F0411022461E0F460868DFF82C8033
:101890000021C047002E0DDD054600235C1C1022F0
:1018A00057F824000021C047E3B2C0B2B34205F8A4
:1018B000010BF3DB0020BDE8F08100BF6D1C0000D0
:1018C0000128F8B51C4622D02DD3022806D0434B60
:1018D0001B689B027DD400252846F8BD12F0030545
:1018E00018D1930810D00C600A68944263D128463E
:1018F00005E041F8204051F8202094425DD10130AC
:10190000984201EB8006F4D101252846F8BD12F07B
:1019100001051FD0314B1B689802DCD53048314B94
:1019200098470025D8E7DEB2002AEDD00E700C787B
:10193000E4B2B4420D4626D10A44013105E00C70F0
:1019400010F8013BA3421ED10146914208460D46C4
:10195000F5D1D9E75008D7D09AB20A800E88B6B22E
:1019600096428E461AD12C4606E021F8146031F8D2
:1019700014309BB2B34212D1013401EB44078442CC
:10198000BE46F2D1C0E7154B1B689C02A3D52B784D
:101990001548144C3246A04700259DE70F460F4BD3
:1019A0001B68990297D5BEF800300E4C0F489BB2C9
:1019B0003946A04790E70E462846084B1B689A0216
:1019C00089D551F81030074F094822463146B847AB
:1019D00082E7044B074898477DE700BF18030010D3
:1019E0007C980500DD04000044980500AC980500D3
:1019F000E498050018990500F8B52A4E33689A0254
:101A00000546A1EB000743D44FF05A333A46294626
:101A10000020FFF755FF3368044600B39B0233D420
:101A20004FF0FF333A4629460120FFF749FF33685C
:101A30000446C8B1980231D44FF0A5333A4629463E
:101A40000220FFF73DFF3368044698B19A0258BF61
:101A5000012407D51448154B9847012402E09D0244
:101A60000ED400242046F8BD9902FAD50F4B104839
:101A70009847F7E79B02F4D50C4B0E489847F1E7DF
:101A80000A4B0D489847EDE7084B0C489847C7E7C5
:101A90000A46064B01460A489847B5E7034B0948F2
:101AA0009847C9E718030010C0990500DD0400003D
:101AB000A8990500DC99050074990500589905005E
:101AC000389905008C990500F0B51B4F3B6804461A
:101AD000980283B022D41CB90024204603B0F0BD84
:101AE0000868164B1022002198470025064610B9B9
:101AF00010E0B5420ED012491248FFF77DFF0135C4
:101B000004460028F5D13B689B02E5D50E4B0F48F3
:101B10009847E2E70124204603B0F0BD0C480A4D87
:101B20000191A8470199002CDAD13B689A02D3D5DC
:101B30000848A847D1E700BF180300106D1C00003B
:101B4000FCDF031000200010DD040000049A0500F3
:101B5000F4990500F0930500072070471A4B1A68A6
:101B6000F0B46AB901211948194A1A4C1A4F196080
:101B70004CF2E0065F609E60DC601A61F0BC70476A
:101B8000181D13C81A6920F0010721F0070680EA22
:101B9000801081EA810124F00F05BF04B60046EAF7
:101BA000D16647EA503722F07F01ED0184EA4434E0
:101BB00086EA070045EA5454490382EAC2026040BB
:101BC00041EA12325040D5E720030010AAD8F8C6E7
:101BD0001B000006301818006100E0C010B501F0CD
:101BE000DFFB0849084A4C6904F0FF1323F40003A3
:101BF0002240DB0183EA122383EA403383EA502048
:101C0000486110BD2003001000FF800F2DE9F04156
:101C10008E0882B00F46804619D0051F0024FFF7BA
:101C2000DDFF0134A64245F8040FF8D1A7EB860783
:101C30004FB1FFF7D3FF02A93A4641F8040D054B17
:101C400008EB86009847002002B0BDE8F08100262E
:101C5000EEE700BFC5090000A0F10903042B83BF14
:101C60002038B0FA80F040090120704770B4037842
:101C7000A3F10904042C054600F10100F7D9202B3B
:101C8000F5D02B2B04BF6B780546102A2CD012B947
:101C9000302B34D00A22002B39D0002013E0402B07
:101CA000A3F1370413D8392BA3F1300394BFDCB26E
:101CB000FF24A24202FB00F60ED9B04210D815F85C
:101CC000013FA01943B1602BA3F15704E7D9E4B257
:101CD000A24202FB00F6F0D801B10D6070BC704763
:101CE0004FF0FF3070BC7047302BD4D1687800F0D3
:101CF000DF005828D1D1AB7810220235CBE76878C5
:101D000000F0DF0058284FF00802C6D1F3E718466C
:101D1000E2E700BF39B1013950FA81F1013800F82A
:101D2000012F8842FBD170470378002253B1202B4A
:101D30000DD010F8013F13F0DF0FFAD1013292B24B
:101D4000002BF4D1092A28BF0922D0B2704743786A
:101D50000130EBE7144B002203F1280103F8012FB7
:101D60008B42FBD1114A10B402F128010024037800
:101D7000B3B142F8040B037813F0DF0F04D010F86E
:101D8000013F13F0DF0FFAD143780470202B00F1EC
:101D9000010003D110F8013F202BFBD08A42E6D18D
:101DA00002485DF8044B70473B0300103C030010F1
:101DB0002DE9F04FD0F80880056908F1010683B0DD
:101DC00004463046FFF7B0FF82463046FFF7C2FFB9
:101DD0006769BAF1000F0CD10022434688F8002051
:101DE00008F17F0103F8012F8B42FBD103B0BDE85E
:101DF000F08F0646124B00689847002FECD0002366
:101E0000DFF840901C4601E0A742E5D91B0130688D
:101E1000E95805EB030BC8470134E4B22346002818
:101E2000F2D101900AF1FF30DBF8083080B2311DA9
:101E300098473368019A1A705A709A70DA70CBE733
:101E4000B5D9000085D9000098B1F8B50546174608
:101E50000E46002426B90134E4B2AC42FAD1F8BDF2
:101E600008210448B8470448B84708210148B84742
:101E7000F1E7704724C3050028C305002DE9F041B0
:101E8000441C0546084F204616469846B84720464B
:101E9000064B984728700EB9BDE8F08120464346AE
:101EA000BDE8F041184700BF99D80000FDD80000F8
:101EB000412838B50C46CD6817D0422800D038BD2F
:101EC0008B783BB14A78013B9A420BBF0023013229
:101ED0004B704A70A3682A4618780121FFF7B4FFB7
:101EE000A3789BB90023A36138BD8B692BB98B788C
:101EF0001BB14978B9B9013B6370A36811461878E2
:101F00002A46FFF7A1FFA378002BEBD06378E269A4
:101F1000A068C3EBC31111442B460122FFF7AEFFAB
:101F20000023A36138BD01396170E6E770B505464D
:101F30008868CE6803787D2B0C4603D97E2B2FD082
:101F4000002070BD0A2D29D00D2D10D07DB1082D97
:101F50003DD07F2D3BD0092D16D0002A59D1034406
:101F600001205D70A26813780344137070BD0123D3
:101F7000A36103780344002159702ABBA1680B7840
:101F8000002B2FD1022070BD034420215970A1687D
:101F90000B7801330B700AB12148B047012070BDA6
:101FA0000D2DE4D0002DE2D0082D12D07F2D10D0C1
:101FB0001C48B047A2681378134400225A70A068E6
:101FC0000130B047012070BD1748B047D6E7002B5D
:101FD000E4D05A1E0121027008463246FFF734FF52
:101FE000012070BD2378E069104AC3EBC313184485
:101FF00001319047A378042B94BF01330523A370CC
:1020000023786370032B94BF0133002323700220D5
:1020100070BD29460648B047A06803789FE700BF17
:1020200028C3050030C305002CC3050099D8000063
:1020300024C3050070B52E4B2E4C98470546002052
:10204000A0472D4B002098471B2803461FD02B4E3E
:10205000B16ACA78012A28D0CA78022A0BD0012294
:10206000FFF764FF02280DD1B36A9A68002A36D0C0
:1020700001221A7106E0A0F14103DBB20022012B1C
:10208000CA7028D928462346BDE8704018471B4B24
:102090009B6A5A79012A12D0012100225971DA7003
:1020A00028462346BDE8704018475B2814BF00232C
:1020B0000223CB7028462346BDE8704018479A7922
:1020C000D2B2012A02D00022DA70DBE7D9780029E7
:1020D000D8D1DA70D6E70122FFF7EAFED2E79B6893
:1020E00003F17F0103F8012F8B42FBD1CAE700BF48
:1020F000656B0000716B0000496B00003C03001031
:10210000F0B51F4FBE4600250EF82C5F07F1AB0659
:10211000734603F8015FB3424FF00004F9D1184B46
:1021200087F8AC4003F1CC0687F8AD40154D87F831
:10213000AE4087F8AF4087F8B240C7F8B4E0C7F8C0
:10214000C440C7F8C86003F1AC06C7F8B850BE6217
:10215000C7F8BC20C7F8C01048B1012283F8B040CE
:1021600083F8B12008482B46BDE8F040184783F8B3
:10217000B00083F8B1002B460348BDE8F040184793
:102180003C030010DD04000050C3050008B5074CF7
:10219000074EA06A00250379012BFCD1FFF708FE4A
:1021A0000448B047A06A0571F5E700BF3C03001082
:1021B000DD04000050C30500F0B50E4E0E4D83B097
:1021C000074600246420B047AB6A0B4A5B79012BB9
:1021D00004F1010404D0A742F4D2012003B0F0BD01
:1021E000064B074801929847019A936A0020D870DD
:1021F00003B0F0BD113400003C030010DD0400000A
:1022000050C3050070B5FFF7D7FF044690B90A4DDB
:102210000A4BA86A0A4E01214FF0FF3281711A6001
:102220000379012BFCD1FFF7C3FD0648B047A86A2C
:102230000471F5E770BD00BF3C03001018030010E7
:10224000DD04000050C30500032838B504460D46E0
:1022500003D92221034807F0BFFB034B43F8245066
:1022600038BD00BF5CC3050038010040032810B52D
:10227000044603D93421034807F0AEFB024B53F860
:10228000240010BD5CC3050038010040032838B5A8
:1022900004460D4603D94921064807F09DFBA000DE
:1022A00000F18040D0F83831D0F838311D43C0F803
:1022B000385138BD5CC30500032838B504460D46C7
:1022C00003D96021074807F087FBA00000F1804098
:1022D000D0F83831D0F8381121EA0501C0F83811AA
:1022E00038BD00BF5CC3050070B4144E144C356893
:1022F00025F480753560E56802F00F02120525F4BB
:102300004035E5606060A160E260E26803F07F0351
:1023100042EA0362E260E36843F44033E36021464B
:102320004FF6FF7301E0013B05D00A68D201FAD5F0
:10233000044B01221A6070BC704700BF14000040BB
:102340008000004084060010054B054A1B680128E8
:102350000CBF43F4807323F480731360704700BF95
:102360001400004038B5124CA4FB00308509A4FBD2
:1023700001346A1E4FF6FE739A424FEA941404D851
:10238000621E47F6FE739A4203D99621094807F068
:1023900023FB094B1A6802F001021A60186840EA30
:1023A000054018601A686400A4B214431C6038BD6C
:1023B000D34D621074C305006C020040054A1368D7
:1023C00018B923F001031360704743F00103136051
:1023D000704700BF6C0200404FF080420129136833
:1023E0004FF080420CBF034383431360704700BF2C
:1023F000044A1368034A01290CBF03438343136053
:10240000704700BF70000040044A1368034A012966
:102410000CBF034383431360704700BF7400004048
:10242000044A1368034A01290CBF03438343136022
:10243000704700BF78000040044A1368034A01292E
:102440000CBF034383431360704700BF7C00004010
:10245000044A1368034A01290CBF034383431360F2
:10246000704700BF60000040044A1368034A012916
:102470000CBF034383431360704700BF64000040F8
:10248000044A1368034A01290CBF034383431360C2
:10249000704700BF68000040034B044A1B68C3F349
:1024A000032352F82300704728000040106E0400F8
:1024B000034A136823F0700343EA0010106070476A
:1024C00014000040054B064A1B68C3F3021302EBDD
:1024D000830308B9986D7047186C7047140000406A
:1024E000106E0400364A13682DE9F047354EDFF8C8
:1024F00004E1DFF8E480DFF8EC90DFF8F0A00C46B0
:10250000002743F03003A401136044F40204376051
:102510000546C6F800E02820C04737602820346010
:10252000C047294B376028203360C047274B3760AE
:1025300028203360C0473C46376014E0214B4FF4FD
:1025400088121A602820C047214B1E6816F4405F8D
:102550004FF01E0026D1B847012D04F101040CD024
:102560001C4B9C4214D0012D1B4FE7D1D9F80030F1
:102570005800E3D51948D047E0E7D9F800305A00B1
:10258000EED5324621461648D047124B9C42EAD13E
:10259000144B1B685B0007D521461348134BBDE85D
:1025A000F0471847012D01D0BDE8F0870D4B1B689F
:1025B0005900F9D521460E480C4BBDE8F0471847A5
:1025C000F0000040740200400001840080F98000A7
:1025D00078020040A18601001134000088C3050084
:1025E000B8C3050018030010DCC30500DD040000BB
:1025F00098C305000015810038B50B4D01282B68E4
:1026000008D023F0010401214FF40010074B984734
:102610002C6038BD43F003032B6000214FF4001001
:10262000024B984738BD00BFF0000040D92300009E
:10263000024B186820F07F40704700BF80000040C8
:102640002DE9F0410446002800F0A480544D2B6889
:10265000980301D4BDE8F081E1785248524EC9098F
:10266000B0472B6899031CD5E1785048C1F380111D
:10267000B0472B689A03EDD5E1784D48C1F340117E
:10268000B0472B689B0320D5E1784A48C1F381010C
:10269000B0472B689F03DDD561884748C1F3C2115D
:1026A000B0472B68DFF8F880980322D5A17843481B
:1026B0003D4FC1F34111B047D8F800309903C9D557
:1026C000A1783F48C1F30011B8472B68DFF8D080EC
:1026D0009A0326D5A1783B48334FC1F3C001B047D8
:1026E000D8F800309B03B5D5A1783748C1F38001F5
:1026F000B8472B68DFF8A880980325D5A178334820
:10270000294FC1F34001B047D8F800309903A1D553
:10271000A17863782E4801F00101DB0943EA410109
:10272000B8472B68DFF878809A0320D5218829489C
:102730001D4FC1F30E01B047D8F800309B0389D577
:10274000E17925484909B8472B68DFF85480980398
:1027500080D5A1792148144FB047D8F800309903AB
:102760007FF578AFA1881E48C1F30E01B8472B68EA
:102770000B4F9A037FF56EAFA17A1A480A4DB04706
:102780003B689B037FF566AFE16817482B46BDE8C1
:10279000F04118473B21154807F01EF956E700BFE6
:1027A0001403001014C40500DD0400002CC405004F
:1027B00044C405005CC4050074C405008CC4050055
:1027C000A8C40500C0C40500D8C40500F0C40500B5
:1027D00008C5050020C5050038C5050050C5050021
:1027E00068C5050080C5050098C50500F8C305004B
:1027F0002DE9F047414B424F1A78DE78D3F8E45286
:10280000D3F86C433B68012A30D0990335D4BEB16C
:10281000DFF82C81DFF82CA14FF0000909E02846F1
:1028200009F1010900221021C0474E4505F11005AC
:1028300008D03B689A03F2D549463248D047EEE7C4
:10284000BDE8F087DFF8FC90002508E02046013560
:1028500000223021C047AE4204F13004F0D03B6882
:102860009B03F3D529462848C847EFE79803CED500
:10287000DFF8D0A02548D04703E02548DFF8C4A002
:10288000D0473B68DFF878909A03C0D52148DFF83D
:10289000B480D047D9F800309B03B8D51E48C04754
:1028A000D9F800309803B2D51A48C047D9F800309B
:1028B0009903ACD5194B1A481968C047D9F80030AC
:1028C0009A03A4D5174B18481968C047D9F80030A7
:1028D0009B039CD5154B16481968C047D9F80030A2
:1028E000980394D5134B14481968C047D9F80030A1
:1028F00099038CD531461148C04788E7A0060010DF
:1029000014030010F8C6050014C70500B0C5050083
:10291000E0C5050010C6050048C6050000000740D8
:102920006CC605000400074088C605000800074083
:10293000A4C605000C000740C0C60500DCC60500A3
:10294000D5580000DD04000070B40749074B0A6841
:10295000074C08260225DE705D7022F4003218460E
:10296000234670BC0A60184714030010A00600102C
:102970005D5F000010B50B4B1B78012B84B003D0BA
:10298000A821094807F028F8002303930293019334
:1029900000934FF0FF3202230121044C0148A0476D
:1029A00004B010BDA0060010F8C30500295D0000AA
:1029B00070B50D4684B01646044698B10E480369BA
:1029C00003F00303022B09D10023214602962A4675
:1029D00001930093094CA04704B070BD6FF009004B
:1029E00004B070BD29B910220549064B30469847FE
:1029F000E4E76FF00300EFE7A00600102961000094
:102A0000806E0400C509000070B5064B04460D46F3
:102A10001646984720B9324629462046024B984729
:102A200070BD00BF75290000B129000010B50B4B27
:102A30001B78012B84B003D0F621094806F0CCFFA7
:102A4000002303930293019300934FF0FF3201217F
:102A5000044C0248A04704B010BD00BFA0060010FF
:102A6000F8C30500295D000030B50A4D2B6913F04D
:102A7000030385B00AD1144602940A460193014625
:102A800000932846044CA04705B030BD6FF0090004
:102A9000FAE700BFA00600102961000070B5064BE0
:102AA00004460D461646984720B932462946204628
:102AB000024B984770BD00BF2D2A0000692A000014
:102AC00010B5114B1B78012B84B0044604D04FF491
:102AD0009F710E4806F080FF1C2C13D0202C0DD1C6
:102AE00021230022039202920192009201214FF0D1
:102AF000FF32074C0448A04704B010BD4FF0FF3030
:102B000004B010BD1123ECE7A0060010F8C30500C7
:102B1000295D000030B50B4D2B6903F00303012B39
:102B200085B00BD10023144602940A460193014656
:102B300000932846044CA04705B030BD6FF0090053
:102B400005B030BDA006001029610000F8B5064CA4
:102B50000D4616461F46A04720B93A46314628463C
:102B6000024B9847F8BD00BFC12A0000152B00009A
:102B700020B383071CD140291DD830B5114B1B78D9
:102B8000012B85B004460D4604D040F29B110E483F
:102B900006F022FF0023029401930093039506237D
:102BA0004FF0FF320121094C0648A04705B030BD67
:102BB0006FF0050070476FF0060070476FF003007C
:102BC000704700BFA0060010F8C30500295D000093
:102BD00030B50C4D2B695C0785B00FD503F00303AE
:102BE000022B0BD10023144602940A46019301469E
:102BF00000932846044CA04705B030BD6FF0090093
:102C000005B030BDA00600102961000038B50446AB
:102C10000D4610461946044B984720B929462046D0
:102C2000049A024B984738BD712B0000D12B00004D
:102C300020B383071CD140291DD830B5114B1B7818
:102C4000012B85B004460D4604D040F2E9110E4830
:102C500006F0C2FE0023029401930093039504231F
:102C60004FF0FF320121094C0648A04705B030BDA6
:102C70006FF0050070476FF0060070476FF00300BB
:102C8000704700BFA0060010F8C30500295D0000D2
:102C900030B50B4D2B695C0785B00DD513F00303E0
:102CA0000AD1144602940A4601930146009328462D
:102CB000044CA04705B030BD6FF0090005B030BD31
:102CC000A00600102961000038B504460D461046E4
:102CD0001946044B984720B929462046049A024BCE
:102CE000984738BD312C0000912C000000292FD0CE
:102CF0008B0727D1402A28D870B5174B1B78012B9A
:102D000084B00C461546064604D040F23F211348D5
:102D100006F062FE1C2E13D0202E0DD1252300229A
:102D200002940192009203954FF0FF3201210C4C66
:102D30000948A04704B070BD4FF0FF3004B070BD2B
:102D40001523ECE76FF0050070476FF00600704741
:102D50006FF00300704700BFA0060010F8C3050025
:102D6000295D000030B50C4D2B695C0785B00FD58F
:102D700003F00303012B0BD10023144602940A46EF
:102D80000193014600932846044CA04705B030BD8E
:102D90006FF0090005B030BDA006001029610000E9
:102DA00038B50C4615461946049A044B984720B985
:102DB00029462046059A024B984738BDED2C000065
:102DC000652D000098B183070ED1202909D810B4D1
:102DD000084C0B460246A446202107485DF8044BE8
:102DE00060476FF0060070476FF0050070476FF0A6
:102DF00003007047116A0000A0060010D2B112F063
:102E0000030F14D1102B0FD130B585B014461D46D9
:102E10000B460899029102468DE830002021074CAC
:102E20000748A04705B030BD6FF0080070476FF04D
:102E3000050070476FF00300704700BF356A00005F
:102E4000A0060010D2B112F0030F14D1102B0FD135
:102E500030B585B014461D460B46089902910246CE
:102E60008DE830002021074C0748A04705B030BD51
:102E70006FF0080070476FF0050070476FF00300B7
:102E8000704700BF616A0000A006001098B1830778
:102E90000ED1202909D810B4084C0B460246A4468E
:102EA000222107485DF8044B60476FF00600704729
:102EB0006FF0050070476FF003007047116A000063
:102EC000A00600107BB930B585B01C4615460B46F0
:102ED000089902910246019400952221034C04486E
:102EE000A04705B030BD6FF008007047356A00009C
:102EF000A00600107BB930B585B01C4615460B46C0
:102F0000089902910246019400952221034C04483D
:102F1000A04705B030BD6FF008007047616A00003F
:102F2000A006001098B183070ED1202909D810B44B
:102F3000084C0B460246A446232107485DF8044B83
:102F400060476FF0060070476FF0050070476FF044
:102F500003007047116A0000A0060010AAB112F029
:102F6000030F0FD130B585B014461D460B460899A6
:102F7000029102468DE830002321054C0548A04708
:102F800005B030BD6FF0050070476FF0030070476B
:102F9000356A0000A0060010AAB112F0030F0FD18D
:102FA00030B585B014461D460B460899029102467D
:102FB0008DE830002321054C0548A04705B030BD01
:102FC0006FF0050070476FF003007047356A00002E
:102FD000A006001098B183070ED1202909D810B49B
:102FE000084C0B460246A446102107485DF8044BE6
:102FF00060476FF0060070476FF0050070476FF094
:1030000003007047116A0000A0060010D2B112F050
:10301000030F14D1202B0FD830B585B014461D46B0
:103020000B460899029102468DE830001021074CAA
:103030000748A04705B030BD6FF0080070476FF03B
:10304000050070476FF00300704700BF356A00004D
:10305000A0060010D2B112F0030F14D1202B0FD80C
:1030600030B585B014461D460B46089902910246BC
:103070008DE830001021074C0748A04705B030BD4F
:103080006FF0080070476FF0050070476FF00300A5
:10309000704700BF616A0000A006001098B1830766
:1030A0000ED1202909D810B4084C0B460246A4467C
:1030B000122107485DF8044B60476FF00600704727
:1030C0006FF0050070476FF003007047116A000051
:1030D000A0060010D2B112F0030F14D1202B0FD88C
:1030E00030B585B014461D460B460899029102463C
:1030F0008DE830001221074C0748A04705B030BDCD
:103100006FF0080070476FF0050070476FF0030024
:10311000704700BF356A0000A0060010D2B112F05F
:10312000030F14D1202B0FD830B585B014461D469F
:103130000B460899029102468DE830001221074C97
:103140000748A04705B030BD6FF0080070476FF02A
:10315000050070476FF00300704700BF616A000010
:10316000A006001098B10B4610F003010CD1202BE3
:1031700007D810B4074C0246A44607485DF8044B34
:1031800060476FF0060070476FF0050070476FF002
:1031900003007047116A0000A006001012B3F0B5DA
:1031A00012F0030785B017D1202B18D80F4DD5F892
:1031B0003C619E420CD114460B460A99029102468C
:1031C0008DE8500039462846094CA04705B0F0BDAF
:1031D0006FF00B0005B0F0BD6FF00500F6E76FF083
:1031E0000800F3E76FF00300704700BFA00600106F
:1031F000356A000012B3F0B512F0030785B017D19D
:10320000202B18D80F4DD5F83C619E420CD11446A6
:103210000B460A99029102468DE85000394628462D
:10322000094CA04705B0F0BD6FF00B0005B0F0BD34
:103230006FF00500F6E76FF00800F3E76FF00300AA
:10324000704700BFA0060010616A000098B18307B4
:103250000ED1202909D810B4084C0B460246A446CA
:10326000022107485DF8044B60476FF00600704785
:103270006FF0050070476FF003007047116A00009F
:10328000A006001012B312F0030F19D1202B1AD888
:1032900070B5104DD5F83C619E4284B00CD11446F7
:1032A0000B460899029102468DE8500028460221FB
:1032B000094CA04704B070BD6FF00B0004B070BDA6
:1032C0006FF0050070476FF0080070476FF0030063
:1032D000704700BFA0060010356A000012B312F05C
:1032E000030F19D1202B1AD870B5104DD5F83C61B9
:1032F0009E4284B00CD114460B46089902910246B6
:103300008DE8500028460221094CA04704B070BD4A
:103310006FF00B0004B070BD6FF0050070476FF0E8
:10332000080070476FF00300704700BFA006001050
:10333000616A0000F0B5144B1C68012C89B001D003
:1033400009B0F0BD22464FF480414FF480300F4B5E
:103350009847002502A80E4B98474FF0FF3702A967
:1033600000952B462A468DF81C50029504260948E4
:10337000094D0494069403970596A84721460548ED
:10338000064B9847DCE700BF84060010659B0000F1
:10339000B5B3000000200040EDBB0000CDB300003D
:1033A000044B1B68012B01D0002070470248034BDF
:1033B000184700BF84060010002000402DB4000014
:1033C0000B4B1B68012B01D00020704710B5094B37
:1033D000044609489847A04236BF201A001BC04344
:1033E000064CC0EB4010A4FB0030800910BD00BFAC
:1033F000840600102DB4000000200040D34D621060
:1034000020B1002300BF01338342FBD1704700BFCE
:10341000114B1B68012B70B5054616D1632814D9D2
:103420000E4B0F480F4EA3FB0523ED1A03EB55057A
:10343000B0472D0904460A48B04784428ABF201A83
:10344000001BC043A842F6D970BD642000FB05F004
:103450008008054B984770BD84060010851042080F
:10346000002000402DB400000134000008B54FF4E6
:103470007A7303FB00F0014B984708BD113400003C
:1034800030B5464A83B000231468019358B9444AC2
:1034900004F1006311681A68019209032BD4414BAF
:1034A0001A6003B030BD01280FD13D4B3D4A1B6867
:1034B000126801921B0329D4204601AA04213A4B29
:1034C00098473A4B984703B030BD02280BD1344B94
:1034D0001B681D0315D421460220354B9847334BFA
:1034E000984703B030BD032815D12D4B22681B68C7
:1034F00001921803D3D521462E482F4B9847019AA5
:10350000CDE721462C4B2D489847E4E721462A4B2E
:103510002B489847D0E7042809D1214B214A1B6842
:103520001268019219032CD4226003B030BD052823
:103530000FD1244B244D186801AA0723A1B2A84734
:10354000174B1B681A0322D4164B019A1A6003B05A
:1035500030BD0628A5D1124B124A1B681268019291
:103560001B0308D4174B194D1868D2B2A1B2072318
:10357000A84703B030BD214615480F4B9847019A24
:10358000F0E721460E480C4B9847019ACCE72146BC
:10359000019A094B0F489847D6E700BFF80008404A
:1035A000180300109C0008406176000031580000AC
:1035B0005577000030C70500DD0400009CC70500FA
:1035C00064C70500E8000040656D00000D6E000056
:1035D00004C80500D0C7050038B5054D054B2C685B
:1035E000C4F3046024F0004498472C6038BD00BF49
:1035F0006C00084081340000064A136813601B0603
:1036000003D4054B1B6823B1184710B5034B9847EB
:1036100010BD70477C000840A00B0010D935000099
:10362000044A1368034A01290CBF03438343136010
:10363000704700BF78000840014B1A681A60704755
:103640007C00084030B4094A094B0A4D11708124AE
:1036500028701A4640F6FF701C7001E0013803D054
:1036600013781B06FAD4012030BC704741000C408F
:1036700042000C4040000C400E4A0F4B203810B462
:10368000C0B2812410701A461C7040F6FF7001E031
:10369000013809D013781B06FAD4084B5DF8044BA7
:1036A0001B780B7001207047044B5DF8044B1B78AE
:1036B0000B70704740000C4042000C4043000C402F
:1036C000F0B52E4B83B01B6800228DF807201A0638
:1036D00001D403B0F0BD2A4E2A4B3046984700284B
:1036E00044D0294D06F2C717E02417F8011F8DF8C2
:1036F0000710FF29204600D0A8470134E4B2E82C87
:10370000F3D1224FF02417F8011F8DF80710FF297D
:10371000204600D0A8470134E4B2F82CF3D10DF1D3
:1037200007011B4B1B4FF42098479DF8073023F0EF
:10373000600343F020031946F4208DF80730A847B2
:10374000E02417F8011F8DF80710FF29204600D04C
:10375000A8470134E4B2E32CF3D196F8D3118DF8E5
:103760000710FF29B5D0F720A847B2E70A4B1B681E
:103770001B03AED5094B0A489847AAE7380000401A
:10378000A40B001091700000453600007B0D001066
:1037900079360000730D001018030010DD040000DE
:1037A0003CC805001E4B1B681B0370B5044632D491
:1037B00001221C491C481D4B98471D4A1D4913688E
:1037C00043F00403136088471B4B984704B1A0479C
:1037D00000211A481A4B1B4D984701220221174815
:1037E000194B984701211548184B9847184B984793
:1037F00001214FF47000174B9847174B17480024CE
:103800001C60224623462821A84721462820144B25
:10381000BDE870401847134B13489847C8E700BFEE
:1038200018030010010000A000000140659B00008B
:10383000100200400D4E0000C136000000200C4078
:10384000B14B0000D5D60000594B0000094C0000D8
:103850003936000021360000A00B0010F9350000B9
:1038600015D70000DD04000064C805002DE9F04F05
:103870003D4BDFF8F8801F686FF00A0387B000F156
:103880000C021B1A00F10B0492009B004FEA840902
:103890008B4601920293002407230DF11602214664
:1038A0003846C0479DF81630FF2B11D003F00F02A9
:1038B0000F2A10D0DB4313F00F0305D0DA0744BF03
:1038C0000234E4B25B08F9D10134E4B27D2CE3D9CF
:1038D00007B0BDE8F08F0134E4B2214607230DF1B3
:1038E0001702224D3846A8479DF817209DF816105C
:1038F00022F00F0343EA11135B10D2434B4502F051
:103900000F0524DB019A934221DA002DDCD0029AC4
:103910001344DB000393002603E002366D08F6B281
:10392000D2D0E807F9D5039B611C06EB030A0BEB29
:103930000A02C9B2072338460234C047E4B20AF18A
:1039400001025A44214607233846C047E5E7002DC7
:10395000BAD0E90744BF0234E4B26D08F9D10134AA
:10396000E4B27D2C98D9B3E7E8000040656D000013
:1039700008B501460020FFF779FF08BD08B50146EC
:103980000120FFF773FF08BD08B501460220FFF7CD
:103990006DFF08BDF0B5204B204E1D6883B0374643
:1039A000002407230DEB030221462846B0479DF86B
:1039B0000730FF2B11D003F00F020F2A12D0DB4388
:1039C00013F00F0305D0DA0744BF0234E4B25B08FA
:1039D000F9D10134E4B27D2CE3D9C4F17E00C0B248
:1039E00003B0F0BD01340723E4B20DEB030221461E
:1039F0002846B8479DF80730DB4313F00F03E8D0A3
:103A0000D90744BF0234E4B25B08F9D10134E4B20F
:103A10007D2CC6D9E1E700BFE8000040656D0000DD
:103A20002DE9F04F5B4B01F00F08B8F10F0F87B095
:103A30001D6838D0584F164681468A460024BB463A
:103A400007230DF1160221462846B8479DF8163087
:103A5000FF2B11D003F00F020F2A28D0DB4313F005
:103A60000F0305D0DA0744BF0234E4B25B08F9D192
:103A70000134E4B27D2CE3D91AF0010F0CBF02230C
:103A800000231AF0020F04BF0233DBB21AF0040F56
:103A900004BF0233DBB21AF0080F04BF0233DBB2FB
:103AA00023447B2B1CDD002007B0BDE8F08F0134E0
:103AB000E4B2072321460DF117022846D8479DF8A6
:103AC0001730DB4313F00F03D2D0D90744BF0234C1
:103AD000E4B25B08F9D10134E4B27D2CB0D9CBE774
:103AE0004FEA491242F00F0221462C4FDFF8BCB0DA
:103AF00002F0EF0207232846B8474FEA4902611C4B
:103B000002F0F00242EA0802C9B207232846023452
:103B1000B847E4B206F101090027039548FA07F314
:103B200013F0010F22461E491E48DFF87CA026D163
:103B3000DBF80030DB0203D519F8013C0097D047D1
:103B4000072332780398154D2146A847DBF800304B
:103B50001349144804F1010A5FFA8AFA13F4801F2A
:103B6000524603D07378104D0097A847514607235B
:103B700099F800200398094DA8470234E4B20137B0
:103B8000042F09F1020906F10206C7D1012007B08E
:103B9000BDE8F08FE8000040656D00000D6E00008C
:103BA000B8E0050084C80500DD040000140300101F
:103BB00008B5C9432C30C9B2C0B2FFF731FF08BD08
:103BC00008B5C9433030C9B2C0B2FFF729FF08BDFC
:103BD00008B5C9433430C9B2C0B2FFF721FF08BDF0
:103BE00010B4A1F180041F2C03D901205DF8044B0F
:103BF0007047024CA4465DF8044B6047656D0000B9
:103C000010B4A1F180041F2C03D901205DF8044BEE
:103C10007047024CA4465DF8044B60470D6E0000EF
:103C2000F8B5084B084F1E6805468024214601342C
:103C30002A4607233046A4B2B847A02C05F1010557
:103C4000F4D1F8BDE8000040E13B00002DE9F0416F
:103C5000134B144F1E68DFF8508082B00546802455
:103C600005E00134A4B2A02C05F1010514D007230E
:103C70000DEB030221463046B8479DF80730FF2B75
:103C8000EFD1214601342A7807233046A4B2C04739
:103C9000A02C05F10105EAD102B0BDE8F08100BF1A
:103CA000E8000040E13B0000013C000010B4054B7F
:103CB000054C1868A4460723FE22C0215DF8044B7A
:103CC000604700BFE80000400D6E0000F8B5084BEB
:103CD000084F1E6800F11005B02421460134072367
:103CE00015F8012D3046A4B2B847C02CF5D1F8BD67
:103CF000E80000400D6E0000F8B5084B084F1E6844
:103D000000F11005A02421460134072315F8012DE8
:103D10003046A4B2B847B02CF5D1F8BDE800004059
:103D20000D6E000010B4054B054C1868A44607231F
:103D3000FE22D3215DF8044B604700BFE80000403D
:103D40000D6E000043089B0003F1804300F001006A
:103D5000000110B4C0B24FF46064D3F88022214057
:103D6000844022EA040281401143C3F880125DF8C6
:103D7000044B704743089B0003F1804300F00100AF
:103D8000000110B4C0B2D3F88042C02282400129A1
:103D900024EA02020ED0022904D0C3F880225DF882
:103DA000044B7047402181400A43C3F880225DF8EC
:103DB000044B7047802181400A43C3F880225DF89C
:103DC000044B70474208920002F1804200F001006B
:103DD000D2F88032000110F0FF0010B40CBF1C0CB0
:103DE0009CB201F00F0343F4807308BF24048340A6
:103DF0002343C2F880325DF8044B70474108054AFE
:103E000000F0010352F821001B01D84000F00F0020
:103E1000704700BF8002004043089B0003F18043CD
:103E2000C107D3F880224CBF22F4702222F00F0287
:103E3000C3F88022704700BF003118BF01210F4A2C
:103E400068B1536A41F480711B0C89B21B040B43A7
:103E50005362D36A9BB243EA0141D162704713684F
:103E600041F4807189B29BB243EA014313609368C5
:103E70001B0C1B0419439160704700BF8002004077
:103E800008480031026B18BF012141F4807399B2D8
:103E900093B243EA01430363426B130C1B040B43CD
:103EA0004363704780020040003118BF012188B190
:103EB000012800D070470F4A936B41F4807189B29A
:103EC0009BB243EA01439363D36B1B0C1B0419435E
:103ED000D1637047074A136A41F480711B0C89B2A1
:103EE0001B040B431362136A9BB243EA0141116244
:103EF000704700BF800200400029224B224940F257
:103F0000031204BF4FF080734FF48072A0B10128F8
:103F100025D0086C000C000410430864086C80B2C3
:103F200018430864486C000C000402434A644A6C5D
:103F300092B213434B647047086880B2184308601C
:103F40004868000C000410434860486880B203438E
:103F50004B608B681B0C1B041A438A607047486ACD
:103F6000000C000410434862486A80B2184348625B
:103F7000C86A000C00040243CA62CA6A92B21343C0
:103F8000CB6270470000030180020040002930B47A
:103F90000BBF4FF080744FF081744FF480754FF475
:103FA000817588B1012818491ED0086C80B2204361
:103FB00008644A6C130C1B042B434B644B6C9BB280
:103FC00023434B6430BC70470F4803689BB22343C4
:103FD000036043689BB21C43446081680A0C12046E
:103FE0002A43826030BC70474B6A1B0C1B042B4376
:103FF0004B62CA6A120C12042A43CA62CB6A9BB291
:104000002343CB6230BC704780020040164BDA6815
:1040100000294FEA124110B44FEA01410CBF4FF49E
:1040200080744FF4827441EA0401D960D9680CBFEE
:104030004FF080704FF0827089B20143D9601969E6
:10404000090C090421431961196989B201431961F5
:1040500059690A0C120422435A615A695DF8044BEB
:1040600092B202435A61704780020040002940F238
:10407000051310B4184A06BF4FF480744FF08072D5
:104080001C4670B10128154819D0816B89B21143C3
:104090008163C26B130C1B042343C3635DF8044BA1
:1040A00070470E4B186880B242EA000119609968A7
:1040B0000A0C120422439A605DF8044B7047C36AED
:1040C0001B0C1B042343C362416A5DF8044B89B295
:1040D00011434162704700BF0000050180020040AB
:1040E000194A002940F2051330B40BBF4FF0807518
:1040F00015464FF480741C4668B1012818D0134847
:10410000416B89B229434163826B130C1B04234327
:10411000836330BC70470D4841680A0C1204224387
:10412000426043689BB245EA0301416030BC70477E
:10413000064AD16A89B22943D162536A1B0C1B0417
:104140002343536230BC70470000050180020040E9
:10415000002930B4224B0BBF4FF080744FF08374B2
:104160004FF480754FF48375E0B1596A090C090466
:10417000294359625A6A92B222435A62996A090CD7
:104180000904294399629A6A92B222439A62D96ACF
:104190000A0C12042A43DA62DA6A92B21443DC622D
:1041A00030BC7047DA68120C12042A43DA60DA680D
:1041B00092B22243DA601A69120C12042A431A617D
:1041C0001A6992B222431A615A69120C12042A43E4
:1041D0005A615A6992B214435C6130BC704700BFA7
:1041E000800200401D4B002940F2091212BF1946FF
:1041F0004FF080714FF48072194BB8B1986C000C7D
:10420000000410439864986C80B208439864D86C9A
:10421000000C00041043D864186B000C0004024327
:104220001A63DA6B92B21143D9637047586A000C73
:10423000000410435862586A80B208435862986A72
:10424000000C000410439862986A80B2014399629E
:10425000D96A090C09040A43DA62704700000901AF
:1042600080020040002930B40BBF4FF080744FF043
:1042700084744FF480754FF4847558B10C498A6C7E
:10428000130C1B042B438B648B6C9BB223438B64FA
:1042900030BC70470648C1690A0C12042A43C26147
:1042A000C26992B244EA0203C36130BC704700BFE6
:1042B00080020040074A08B51368002123F48053A8
:1042C00008461360FFF7CEFF00210120BDE808403B
:1042D000FFF7C8BFA4000040074B984209D02C3319
:1042E000984206D0A3F50973C01AB0FA80F04009CD
:1042F00070470120704700BF9C0200400B460D280C
:1043000042D8DFE800F00B0F412125292D3135413E
:10431000393D410711461846FFF7A4BF114618461C
:10432000FFF78ABD194900320B6B18BF012242F416
:10433000807292B29BB243EA02430B634B6B1B0C3D
:104340001B041A434A63704711461846FFF7D4BD51
:1043500011461846FFF71ABE11461846FFF786BEEB
:1043600011461846FFF7BCBE11461846FFF73ABF84
:1043700011461846FFF798BD11461846FFF746BE8E
:1043800011461846FFF7E4BE704700BF80020040A8
:10439000054B06491A680B68C2F3021223F00F039B
:1043A00013430B60704700BF14000040F80000404A
:1043B000054B06491A680B6802F00F0223F07003E0
:1043C00043EA02130B607047F800004014000040FD
:1043D000064B1B6820B9054A23F000531360704751
:1043E000024A43F000531360704700BF10020040C0
:1043F000064B1B6820B9054A23F0804313607047C1
:10440000024A43F080431360704700BF0800004039
:10441000054B054A1B6801280CBF43F4802323F495
:1044200080231360704700BF40000040104B114ACA
:104430001B6801280CBF4FF401014FF40001C3F3C6
:104440000210116013680B491B02FBD410B50C68F5
:104450000528C4F30D0404F1010401D0204610BD69
:10446000054B1B685B00F9D5044B05489847F5E7F9
:1044700014000040A028004018030010DD040000D4
:10448000BCC80500044A1368034A01290CBF034352
:1044900083431360704700BF00010040014B1A685E
:1044A0001A6070470801004000F00F031A0430B48E
:1044B0000749084C42EA036580B228430860216836
:1044C00041F400710B431343236030BC704700BFBD
:1044D000A8000040AC000040F0B5104F104E3C6802
:1044E000104A336800294FF0010E4FF0013108BF28
:1044F000154601FA00F143F4007218BF4FF0013580
:104500000EFA00F324EA01011A4305FA00F40C4301
:1045100042EA03433C603360F0BD00BFA8000040A6
:10452000AC00004001000101024A136843F07063CF
:1045300013607047A800004042F2A303984230B4D1
:1045400028BF18464FF47A740B6804FB00F0C009CA
:1045500003F1180505E00133AB420B604FEA500050
:1045600003D020F0FF04002CF5D11B020B6030BCFF
:104570001060704770B582B000230093019301B1C1
:1045800020B9134B00221A6002B070BD104D114AC1
:10459000044616682B60104A18469047C6F3021668
:1045A00001AA40F655036946B3FBF0F020FA06F382
:1045B00020465C1EFFF7C0FF9DE80C00134343EA52
:1045C00004442C602B6843F400432B6002B070BDA0
:1045D00090000040140000402D440000084A136879
:1045E00043F00043136013681B0C1B0443F4144393
:1045F00043F01003136013681B04FCD4704700BF22
:104600009400004000285BD02E4A136843F000431A
:10461000136013681B0C1B0443F4534313601368AB
:104620001904FCD4284B294A196810B519600446AE
:1046300001209047264B27490001A3FB00304FF48F
:104640007A72800902FB04F3B3FBF0F0884233D89E
:10465000C2B2C0F30724000C1A490B681B0C1B04E0
:1046600043F4104313430B600A68164B1204FBD447
:104670001A68120C120442F4114222431A601A46BC
:104680001168104B0C04FBD41A68120C120442F48B
:10469000124202431A601A4611680A4B0904FBD4FD
:1046A0001A68120C120442F4534242F080021A605B
:1046B0001A681204FCD410BDFF2422467F20CBE7E9
:1046C000704700BF94000040300100402D440000BE
:1046D000CDCCCCCCFEFF7F00014B1860704700BFF3
:1046E00020010040034A136823F0FF0318431060C1
:1046F000704700BF24010040084B1B6823F00703EC
:10470000184329B9054B20F4807018601B68704766
:10471000024B40F4807018601B687047180100401D
:10472000054B1B6821B9044A23EA00031360704754
:10473000014A034313607047100100400D4A0E4BBD
:104740004FF0FF3110B5C2F880110446984720465B
:104750000A4B984700200A4B98470120094B98477D
:104760000020094B984701210220084B984730BF91
:1047700010BD00BF00E100E09D440000D9460000EC
:10478000E5460000F5770000F1430000F94600001F
:104790000B4A4FF0FF3108B54FF08050C2F880113E
:1047A000084B012198470120074B98470020074BF1
:1047B000984701210846064B984730BF08BD00BF07
:1047C00000E100E085440000F5770000F1430000BF
:1047D000F946000030B400231425192420210522B5
:1047E00045608460016142610360C36030BC704712
:1047F000F0B4154D1549164C164B174A174F802625
:104800002E7005680D608588017A258019701368FF
:10481000134E144D144943F0004313603B6833605A
:10482000C3682B60038A23820B88808A9BB26382D1
:10483000488432F80E3C9BB243F0080383F40043F3
:1048400022F80E3CF0BC7047BB000540A0000540BC
:10485000A4000540D9000540D4000540A80005404B
:10486000AC000540B0000540B8000540024A13887E
:104870009BB21380704700BFC2000540044B044A3E
:104880001B8801299BB20CBF0343834313807047ED
:10489000C0000540014B1878704700BFD0000540AC
:1048A000014B188880B27047D2000540034A137844
:1048B00083F0800318431070704700BFC4000540A8
:1048C000054B054A1B889BB283F4004301290CBFAA
:1048D0000343834313807047C6000540014B18888B
:1048E00080B27047B8000540014B1880704700BF88
:1048F000B6000540014B188880B27047A8000540FB
:10490000014B1880704700BFAC000540014B80226E
:104910001A707047BB000540704700BF2DE9F04793
:104920003B4B3C4E80463C4898473C4BC4000546B8
:1049300039489847321953789B09022B01D0BDE8BA
:10494000F087D2F8049099F80430513B0746102BB9
:1049500013D8DFE803F0541209124B12121212128C
:10496000121212121212470099F80210B9F80C2014
:10497000D9F808002A4B494498473444691C6378A5
:10498000284A2548012565F387136370294090471D
:1049900099F806201F4BD207D1D503EBC703597CEA
:1049A000C1F38012002ACAD162F387115974586981
:1049B000D9F808101C8AB9F80CE08160102161F365
:1049C0000D04260A791965F38716A0F80CE08273A6
:1049D0008270028029401C820F485E74124ABDE832
:1049E000F04710470123C8F80030C6E7B9F80C209B
:1049F00099F80510D9F808000C4B9847BDE70C4B07
:104A00001B685900B9D50B4B0B489847B5E700BF59
:104A10002D4C0000A40D001000200C404D4C000057
:104A2000C5090000254C0000454C00007D0A00002F
:104A300018030010DD040000E0C8050070B5124C3A
:104A4000124B134D134E8CB0984720460021A847B7
:104A500020460021104B98476846104B9847104B52
:104A60000093022269461033204601920792069372
:104A7000B04720460B4B40F6FF7198472046012176
:104A8000A8470CB070BD00BF00200C400D4E0000C8
:104A9000B14B0000854C0000094C0000554C000053
:104AA000A40D0010914D0000F0B5244B244A5C7A0F
:104AB0005D785F7E587C5A600126002183B066F3E2
:104AC000871566F387145C72A2F50066A2F5C054E0
:104AD00061F387105D7061F38717A2F580555874F4
:104AE0000191DE605D61262016495F76DC615E62C1
:104AF0009D621A62DC62144D144E8847FFF79EFFD8
:104B000004E0E3070CD4019B012B12D01048A84706
:104B100082070446F5D502210D48B047E307F2D5D8
:104B200001A8FFF7FBFE01210948B047019B012BBB
:104B3000ECD1084B1B68984703B0F0BDA40D0010E2
:104B400000B0031065D700009D4D0000954D00009A
:104B500000200C4000200010012A09D0012918D0A3
:104B60000DD302290AD1836823F400638360704760
:104B7000012918D008D3022910D0704770478368E4
:104B800023F0080383607047836843F00803836061
:104B90007047836823F0800383607047836843F421
:104BA000006383607047836843F0800383607047CD
:104BB00038B569B90C460A460C4D0D48A84722463F
:104BC00001210B48A847224602210948A84738BDC1
:104BD000064C074801220021A04701221146044843
:104BE000A047012202210248A04738BD594B0000CE
:104BF00000200C40036801290CBF43F00C0323F094
:104C00000C030360704700BF39B101290CBF40F2AB
:104C10002E6340F28F630360704740F24F6303607E
:104C2000704700BFC9B24162704700BF406AC0B25E
:104C3000704700BF006AC0B2704700BF806AC0B250
:104C4000704700BFC9B2C162704700BFC06AC0B23E
:104C5000704700BF70B40621002608254FF4C064D9
:104C600040F271220423066086614560C56184605C
:104C70000462C1604162026182624361C36270BCCE
:104C8000704700BF0A68F8B50346FAB1026180694F
:104C90000E798D68CC6820F0FF0098619A693243E4
:104CA0009A61DA6822F47F6222F00F02DA60D86833
:104CB000C5F30B020243DA609A6822F470229A600C
:104CC000986804F00F0240EA02429A608A6912B3BF
:104CD0005A619869CA690D6A4C6A20F47F409861EC
:104CE0009869120292B202439A61DA6822F07F62F6
:104CF00022F47022DA60D868C5F30B0240EA02425F
:104D0000DA609A6822F470029A60986804F00F02E0
:104D100040EA02529A6000241C641D6C0F8AB1F8AC
:104D200028E04E69CA6A124847EA050119641F6CF7
:104D3000104D06F03F0647EA06461E641E6C46F01C
:104D400000461E645C64596C4EEA01015964596C5A
:104D500002F03F0241EA02425A645A6C42F00042B9
:104D60005A642146A84721460148034B9847F8BD9D
:104D700000200C40254C0000454C0000436823F007
:104D80003F434360436843F03F434360704700BF85
:104D900001637047436B194341637047806B7047F1
:104DA000036C39B923F000430364436C23F00043E0
:104DB0004364704743F000430364436C43F0004393
:104DC00043647047036F19B923F480330367704756
:104DD0001B0C1B040367036F92B21A430267036F35
:104DE00043F4803303677047436F19B923F480336A
:104DF000436770471B0C1B044367436F92B21A430F
:104E00004267436F43F4803343677047194A13681E
:104E100070B523F48043184D13602B68174C43F092
:104E200001032B606420A0472B6843F006032B602E
:104E30000A20A047124B1A6822F002021A601A6870
:104E400022F001021A600120A04701220D490E4BF9
:104E50000E4898476420A0470D480E4B0121984703
:104E60000D4A136843F48033136064202346BDE881
:104E700070401847640000400002004011340000F8
:104E80000402004010000080659B000010000040FC
:104E900000200C40F54B000014020040F8B5154608
:104EA00004460A461F462946202300201D4DA847D8
:104EB000FF2806462CD0502200211B4B2046984745
:104EC000BDF8182022850223002001254FF00C0C8C
:104ED0004FF0130E154AA064314620612070E36044
:104EE000A360E361A36163616360C4F840C0C4F878
:104EF0002CE022620E4B667022466762E5642563F1
:104F00009847207861780B4B2A4698472846F8BD89
:104F1000094B186810F08040F9D0084B08489847B2
:104F20000020F8BD918500007D0A000000000140CE
:104F30008D8200005982000018030010DD0400007B
:104F400004C90500054B054A1B6A01280CBF43F044
:104F5000020323F002031362704700BF0000014008
:104F6000144B15491A6810B4C2B90A6A806922F450
:104F7000404242EA803222F00C020A625A680E492C
:104F80008AB14A6203F10C009C680B4A0BC8946218
:104F9000D0625DF8044B1163536370470A625A682C
:104FA0000549002AEDD14A6A22F0020242F00502C8
:104FB0004A62E7E7D40D00100000014010B5194C1B
:104FC00063689B0710D50146F0B1E36923F0010344
:104FD00003430128E36120D0124AD369190512D591
:104FE000D3691B05FCD410BDE36923F0010303431F
:104FF0000128E361F0D10B4AD3691C0503D4D369BE
:105000001805FCD510BD10BD074A084BD06898475D
:10501000E36923F00103E361DEE7034A034BD06851
:105020009847E8E700000140DC730400CDB30000BE
:10503000044A936801290CBF184323EA00009060DA
:10504000704700BF000001402DE9F041234D0128C9
:1050500088B006466C680DD000210120204B24F05A
:10506000020498476C60002180201E4B984708B0CE
:10507000BDE8F0810F461A4B01469046984702A8BA
:10508000194B984719491A4BC8681A4A0496BF0227
:10509000A3FB0713FF1A03EB57073F094FF0000E5E
:1050A000039744F002040327D268CDF808E002A970
:1050B000CDF800E073468DF81C704FF0040E0E4FD3
:1050C000CDF814E044EA08440696B8476C603146CF
:1050D0008020044B984708B0BDE8F08100000140F3
:1050E0002147000031500000B5B30000DC7304001C
:1050F00085104208F4730400EDBB0000032870B56E
:1051000004460E4615462ED8032C16D8DFE804F0C8
:10511000241D1602164A53699BB243EA064656619D
:105120001348144E8369012101FA04F2A54023EAD1
:105130000202154385610F20B04770BD0C4A5369C8
:105140001B0C1B041E435661EAE7094A13699BB214
:1051500043EA06461661E3E7054A13691B0C1B0484
:105160001E431661DCE7BD21034804F035FCCBE7A4
:10517000000001403150000024C90500014BDA68ED
:10518000DA60704700000140014BD860704700BFF3
:1051900000000140014BD868704700BF000001408B
:1051A000014B1868704700BF000001402DE9F04135
:1051B0000F4C104D104F114E8046A047A84730208D
:1051C0000121B8470120B047A04710F0300FFBD0B5
:1051D0000B4CA047C8F80000A047C8F80400A84737
:1051E00000213020B8470020B047A847BDE8F08133
:1051F000955100007D51000031500000BD4F00006E
:10520000A1510000F0B40C4A0C4F0D4E0D4D0E4C48
:105210000321002381610821C36003604360836030
:1052200001614161C36113609760D660156154618B
:105230005360F0BC704700BFD40D00100044886775
:105240003900787701D504000008011EF8B5C1685F
:10525000036806690D4F0E4D0446CA00A168C06977
:1052600042EA81021A4342EA062343EA00637B6072
:10527000FB6923F0060343F00803FB616068626981
:105280000121A8472046034B9847F8BD0000014084
:1052900049500000614F000030B50D4B0D4C1868AF
:1052A000256859689A68DB6885B06C460FC46B0046
:1052B0000AD4094B012098476846084B98470120BB
:1052C000074B984705B030BD064B07489847F0E7B5
:1052D00038C9050018030010DD9A0000FD99000090
:1052E000799A0000DD04000048C9050070B50C4C37
:1052F0000C4B0546984723685A0000D470BDC1B2D4
:1053000001F00F020848094E0909B047012DF5D1F7
:1053100023685B00F2D533460548BDE87040184766
:105320001803001095B3000054C90500DD04000007
:1053300064C90500024B1B689B0400D5ACE77047AD
:1053400038000040214A224B2DE9F0411B681468C7
:105350005A00C4F3816404F1040432D400201D4EC9
:105360001D4F1E4DB04700224FF480711020B847EA
:105370001B4B0020984701224FF480711020B84742
:10538000002101220A20174B98472846164B9847C0
:105390000322164BAA6000206C71AC719847012063
:1053A000B047134B9847134B984718B1074B1B68EE
:1053B0009B0101D4BDE8F08100200F4BBDE8F04116
:1053C000184721460D4B0E489847C7E73800004064
:1053D0001803001011580000659B0000EC0D001030
:1053E000157D0000FD420000117C0000A17C000042
:1053F0003158000049B30000F5770000DD040000DB
:10540000D0C90500344B1B682DE9F0419C0440D401
:105410004FF00063314C9D68236805F1006520352D
:105420005800D5F80880EF684FD4B8F1FF3F25D079
:10543000791C23D042462A4B05F120013846984773
:10544000284B1A78232A27D1274A03E013F8010FA3
:10545000884221D112F8011FFF29F7D12368234C7C
:105460005B0004D5224822686169224B9847636932
:105470001E4A03B91368BDE8F04118471D4E1E4D82
:1054800001E01E48A84723685A00FAD51C48B047D7
:10549000F7E7FFF701FFBBE72368104D13F08043E8
:1054A0000CD1144E144D33B91448A847236803F0A7
:1054B0008043002BF8D01348B047F5E712480D4E53
:1054C000B0472B6803F08043ECE73A464146094E6B
:1054D0000E48B047A9E700BF38000040180300108D
:1054E000C509000018200010906E04000020001074
:1054F0006CCA0500DD04000005220000A086010042
:10550000F4C9050030CA05000CCA0500E0C9050051
:10551000074A084B10B514689847012800D010BD01
:1055200014F04000FBD1044BBDE81040184700BF09
:10553000380000402DB30000A537000070B5254BA2
:10554000254D1C682B685A00C4F302742AD4052C1C
:1055500023D8DFE804F0070B0F1318031F4BBDE837
:1055600070401847BDE87040FFF74CBF1C4BBDE8CA
:10557000704018471B4BBDE87040184700201A4B7D
:10558000BDE8704018470120174BBDE87040184730
:105590002B685B0001D51548B0471548154BBDE891
:1055A00070401847144B154E984721460246144840
:1055B000B047052CECD801A353F824F06555000042
:1055C0006D550000755500007D55000087550000A1
:1055D0005D55000038000040180300105DAA00006F
:1055E000E5A80000A94A00000109000098CA0500CA
:1055F000A08601000522000099240000DD040000BF
:1056000080CA050030B4084A084C094809490023FB
:105610004FF0FF351560236003600968090448BF37
:10562000136030BC704700BF180300101403001053
:10563000100300103800004070B5544B544D554ACB
:10564000554C82B05D1B90470020544B01224021F5
:105650009847534B1B68980000F19480514B4C487D
:105660002A46002198474E4B1B68002BC0F28780CA
:105670004B4B1B6819017FD400204B4B4B4D984777
:105680004B494C484C4A00234FF0FF360B602E60CC
:105690000360126849484A4E120448BF2B60494BC8
:1056A00098470120484B9847484B984709220146A4
:1056B00002234FF40040B047454B0120984700209B
:1056C000FFF714FE434B9847FFF73CFEFFF724F922
:1056D000334B1B685E014CD43F4B9847022833D0B4
:1056E00014203E4B98473E4B9847F8B93D4B98479E
:1056F00001071BD42A4B1B68DA0022D402AA00231C
:1057000002F8013D384B394C1868D3210723A047D4
:105710009DF80730DB0729D5354A136843F48033F9
:105720001360FFF7F5FEFFF709FFFEE708210020F1
:10573000304B9847304B02209847194B1B68DA00D2
:10574000DCD5A3689847D9E72C4B98470028CAD0E6
:10575000194B1B68002BC6DA2B68580002D5284865
:10576000284B984728481D4B9847BCE7274B98473C
:10577000D2E723699847AFE7E36898477CE7236857
:10578000984775E76368984768E700BFF81400100A
:1057900000000010A1B3000000200010659B000075
:1057A000100200407D0A0000B12400001803001020
:1057B000100300101403001038000040FCEF031029
:1057C000E922000015D50000F92500009924000009
:1057D0009D6B0000353300007DB300000522000002
:1057E00069B300006D220000E8000040656D000014
:1057F00014020040B92200000109000049B3000072
:10580000B8CA0500DD040000A0860100B542000012
:10581000064B1B6820B9054A23F00103136070474B
:10582000024A43F001031360704700BF003C004090
:10583000064B5A6822F0010242F001015A601A46F2
:10584000596053689B07FCD5704700BF003C00407F
:10585000F8B5134DEC6818B1124E3368580007D4F0
:105860000F4B44F0030224F00304DA60DC60F8BD5F
:1058700029690D480D4FB84733685900F0D569695B
:105880000B48B84733685A00EAD5A9690948B847B0
:1058900033685B00E4D5E9690748B847E0E700BF33
:1058A000003C004018030010D0CA0500DD040000D1
:1058B000F0CA050010CB050034CB0500002907DD38
:1058C000002203681BBA01328A4240F8043BF8D137
:1058D000704700BF2DE9F04F064683B000283CD04A
:1058E0000C46002939D0002A3ED011462448254DC7
:1058F000A8474FEA141804F00F03019308F10109B7
:105900000027B84518BF4FF0100A33D031461E4863
:10591000A84706F1FF3B002401E0082C26D0013403
:105920001BF8011F1948A8475445F6DBBAF1100FC0
:1059300008D0BAF1070F13DDCAF110041448A847C4
:10594000013CFBD10137B94506F11006D9DC1148FD
:105950002B4603B0BDE8F04F184703B0BDE8F08F09
:10596000084B0D489847E7E7064DC2E7054B0A4844
:105970009847D4E7019B002BE9D0DDF804A0C5E7E8
:1059800054CB0500DD0400005CCB05006CCB0500AA
:1059900074CB050058CB050068CB0500002800F04B
:1059A0008181002A00F07E812DE9F04F802983B0AB
:1059B00088467AD0C02900F0B680B1F5807F40F0EB
:1059C0006E810E23C2F8F03044780178C378857870
:1059D000240444EA0161594041EA052313604479F3
:1059E0000179C5798679240444EA0161694041EA74
:1059F00006255560467A047AC77A817A360446EAE3
:105A000004647C4044EA01219160477B067BC47BAF
:105A10003F0447EA0666877B664046EA0724B8F1FA
:105A2000800FD46045D0467C90F810E0C77C3604E7
:105A300046EA0E6690F812E07E4046EA0E261661AF
:105A4000477D067D90F817E090F816C03F0447EABE
:105A5000066686EA0E0646EA0C2CB8F1C00FC2F8BC
:105A600014C064D0467E90F818E0C77E360446EA3B
:105A70000E6690F81AE07E4046EA0E269661467F52
:105A800090F81CC0C77F90F81EE0360446EA0C6010
:105A9000784040EA0E2EB8F5807FC2F81CE000F096
:105AA0008B80002003B0BDE8F08F0A23C2F8F030ED
:105AB0008AE77E4E964602F19008B44601E00EF168
:105AC000100EE0B24FEA146A06EB8000C4F30742FE
:105AD00006EB8A0A806A9AF828A05CF8047B06EB39
